S01700004763634170706C69636174696F6E332E7372656359
S11300000C9434000C9451000C9451000C94510045
S11300100C9451000C9451000C9451000C94510018
S11300200C9451000C9451000C9451000C94130244
S11300300C9451000C9451000C9451000C945100F8
S11300400C9451000C9451000C94C2010C94510076
S11300500C9451000C9451000C9451000C945100D8
S11300600C9451000C94510011241FBECFEFD8E022
S1130070DEBFCDBF11E0A0E0B1E0EAE6FAE002C0E5
S113008005900D92AC35B107D9F721E0ACE5B1E0AC
S113009001C01D92AF35B207E1F70E9422020C9411
S11300A033050C94000087B1816087B988B1816001
S11300B088B9089588B18E7F88B92FEF80EE90E0DB
S11300C0215080409040E1F700C0000088B1816079
S11300D088B92AE62A95F1F700C087B18E7F87B9DF
S11300E085ED8A95F1F7000030990FC08FE391E018
S11300F00197F1F700C00000309B07C08FE391E047
S11301000197F1F700C00000FFCF81E0089510923D
S1130110B90087E48093B80084E08093BC0008951C
S113012084EA8093BC008091BC008823E4F708959E
S113013084E98093BC0008958093BB0084E8809395
S1130140BC008091BC008823E4F7089584EC80937C
S1130150BC008091BC008823E4F78091BB00089523
S113016084E88093BC008091BC008823E4F78091EC
S1130170BB000895EF92FF920F931F93CF93DF93E9
S1130180EC018B017A010E94900080ED0E949C009A
S113019080E00E949C000E94900081ED0E949C00DF
S11301A00E94A600F70180830E94A600F8018083C4
S11301B00E94B00088830E949800DF91CF911F9124
S11301C00F91FF90EF900895EF92FF920F931F937A
S11301D0CF93DF937C018B01EA010E94900080EDB4
S11301E00E949C0084E00E949C000E94900081ED8B
S11301F00E949C000E94A600F70180830E94A60032
S1130200F80180830E94B00088830E949800DF91E7
S1130210CF911F910F91FF90EF9008951092C1001C
S113022096E09093C2001092C5008093C400089594
S1130230E1ECF0E08081886080830895E1ECF0E0F7
S11302408081806180830895E1ECF0E080818068A2
S1130250808308958091C00085FFFCCF089580932A
S1130260C6000895EF92FF920F931F93CF937C01E2
S1130270C0E007C00E942A01F80180810E942F017A
S1130280CF5F87010C0F111DF80180818111F2CF1E
S1130290CF911F910F91FF90EF900895CF93DF932B
S11302A0CDB7DEB7CC56D1090FB6F894DEBF0FBE7A
S11302B0CDBF19821A82BE016E5F7F4FCE010196B7
S11302C00E945A00811154C0AE0146595F4FBE01CD
S11302D065597F4FCE0184599F4F0E94BA00AE01E9
S11302E049595F4FBE0168597F4FCE0187599F4FCF
S11302F00E94E400AB968FADAB971F928F93AC96A0
S11303008FADAC971F928F93AD968FADAD971F9223
S11303108F93A8968FADA8971F928F93A9968FADB0
S1130320A9971F928F93AA968FADAA971F928F9326
S11303308A811F928F9389811F928F9388E191E024
S11303409F938F931F9284E68F93CE0103969F937E
S11303508F930E943B0280915E010FB6F894DEBF3A
S11303600FBECDBF882321F0CE0103960E94320137
S1130370C459DF4F0FB6F894DEBF0FBECDBFDF9177
S1130380CF9108951F920F920FB60F9211242F93BD
S11303903F934F935F936F937F938F939F93AF9309
S11303A0BF93EF93FF938091C60080935C0180918B
S11303B05C01833721F080915C01833579F490915D
S11303C05E0181E0911180E080935E0180915E0185
S11303D0811104C080E091E00E943201FF91EF910D
S11303E0BF91AF919F918F917F916F915F914F9149
S11303F03F912F910F900FBE0F901F901895E1E839
S1130400F0E080818860808381E19AE7909389009D
S113041080938800AFE6B0E08C9182608C938081F9
S11304208560808308951F920F920FB60F92112456
S11304308F9381E080935D018F910F900FBE0F9099
S11304401F90189587E60E940E010E9418010E94D1
S11304501E010E9424010E94FF010E9453000E9479
S11304608700789480915D018823E1F30E944E0116
S113047010925D01F7CFAEE0B0E0E1E4F2E00C945D
S11304800A050D891E898F89988D26E02C831A838D
S1130490098397FF02C080E090E801979E838D83D3
S11304A0AE01455E5F4F698D7A8DCE0101960E9443
S11304B06B024D815E8157FD0AC02F81388542173A
S11304C053070CF49A01F801E20FF31F10822E96E1
S11304D0E4E00C942605ABE0B0E0E1E7F2E00C9434
S11304E0FC046C017B018A01FC0117821682838162
S11304F081FFCCC1CE0101963C01F6019381F70145
S113050093FD859193FF81917F01882309F4BAC1FA
S1130510853239F493FD859193FF81917F01853272
S113052029F4B60190E00E946204E7CF912C212CBB
S1130530312CFFE1F315D8F08B3279F038F48032A6
S113054079F08332A1F4232D20611DC08D3261F036
S1130550803369F4232D216016C0832D8260382EE8
S1130560E32DE4603E2E2AC0F32DF8601DC037FC55
S11305702DC020ED280F2A3040F08E32B9F436FC1D
S113058081C1232D2064322E19C036FE06C08AE0B4
S1130590989E200D1124922E11C0EAE02E9E200D6B
S11305A01124222EF32DF0623F2E08C08C3621F444
S11305B0832D8068382E02C0883641F4F70193FDFC
S11305C0859193FF81917F018111B3CF982F9F7DF6
S11305D09554933028F40C5F1F4F9FE399830DC00B
S11305E0833631F0833771F0833509F059C021C067
S11305F0F801808189830E5F1F4F88248394912C96
S1130600530113C02801F2E04F0E511CF801A080E1
S1130610B18036FE03C0692D70E002C06FEF7FEF3A
S1130620C5010E9457044C018201F32DFF773F2E30
S113063016C0280122E0420E511CF801A080B180AE
S113064036FE03C0692D70E002C06FEF7FEFC50175
S11306500E944C044C01F32DF0683F2E820133FCC0
S11306601BC0822D90E088169906B0F4B60180E292
S113067090E00E9462042A94F4CFF50137FC85913E
S113068037FE81915F01B60190E00E94620421105F
S11306902A9421E0821A91088114910471F7E8C028
S11306A0843611F0893641F5F80137FE07C06081C0
S11306B07181828193810C5F1F4F08C060817181B9
S11306C0072E000C880B990B0E5F1F4FF32DFF763E
S11306D03F2E97FF09C090958095709561957F4F47
S11306E08F4F9F4FF0683F2E2AE030E0A3010E9415
S11306F09E04882E861845C0853731F4232D2F7E1D
S1130700B22E2AE030E025C0932D997FB92E8F3682
S1130710C1F018F4883579F0B5C0803719F08837FE
S113072021F0B0C0E92FE061BE2EB4FE0DC0FB2D58
S1130730F460BF2E09C034FE0AC0292F2660B22EF1
S113074006C028E030E005C020E130E002C020E12E
S113075032E0F801B7FE07C0608171818281938124
S11307600C5F1F4F06C06081718180E090E00E5FD6
S11307701F4FA3010E949E04882E8618FB2DFF772D
S11307803F2E36FE0DC0232D2E7FA22E891458F441
S113079034FE0BC032FC09C0832D8E7EA82E05C00A
S11307A0B82CA32C03C0B82C01C0B92CA4FE0FC0D4
S11307B0FE01E80DF11D8081803321F49A2D997E8C
S11307C0A92E09C0A2FE06C0B394B39404C08A2D16
S11307D0867809F0B394A3FC11C0A0FE06C0B2143D
S11307E088F4280C922C9B180EC0B21460F4B60145
S11307F080E290E00E946204B394F7CFB21418F43C
S11308002B1802C0982C212CA4FE10C0B60180E342
S113081090E00E946204A2FE17C0A1FC03C088E716
S113082090E002C088E590E0B6010CC08A2D86787D
S113083059F0A1FE02C08BE201C080E2A7FC8DE268
S1130840B60190E00E946204891438F4B60180E392
S113085090E00E9462049A94F7CF8A94F301E80D21
S1130860F11D8081B60190E00E9462048110F5CFF1
S1130870222009F442CEB60180E290E00E94620494
S11308802A94F6CFF6018681978102C08FEF9FEFFD
S11308902B96E2E10C941805FC0105906150704020
S11308A00110D8F7809590958E0F9F1F0895FC0135
S11308B06150704001900110D8F7809590958E0F8B
S11308C09F1F08950F931F93CF93DF93FB01238101
S11308D021FD03C08FEF9FEF2CC022FF16C046817D
S11308E05781248135814217530744F4A081B18193
S11308F09D012F5F3F4F318320838C932681378165
S11309002F5F3F4F3783268314C08B01EC01FB011B
S11309100084F185E02D0995892BE1F6D80116961E
S11309208D919C911797019617969C938E93169789
S1130930CE01DF91CF911F910F910895FA01AA275B
S1130940283051F1203181F1E8946F936E7F6E5F0E
S11309507F4F8F4F9F4FAF4FB1E03ED0B4E03CD0BC
S1130960670F781F891F9A1FA11D680F791F8A1F9F
S1130970911DA11D6A0F711D811D911DA11D20D006
S113098009F468943F912AE0269F11243019305DC0
S11309903193DEF6CF010895462F4770405D4193B1
S11309A0B3E00FD0C9F7F6CF462F4F70405D4A33FE
S11309B018F0495D31FD4052419302D0A9F7EACFC6
S11309C0B4E0A6959795879577956795BA95C9F7F5
S11309D000976105710508959B01AC010A2E0694E8
S11309E05795479537952795BA95C9F7620F731FA1
S11309F0841F951FA01D08952F923F924F925F92DE
S1130A006F927F928F929F92AF92BF92CF92DF921A
S1130A10EF92FF920F931F93CF93DF93CDB7DEB77F
S1130A20CA1BDB0B0FB6F894DEBF0FBECDBF099413
S1130A302A88398848885F846E847D848C849B846A
S1130A40AA84B984C884DF80EE80FD800C811B8178
S1130A50AA81B981CE0FD11D0FB6F894DEBF0FBEA7
S10D0A60CDBFED010895F894FFCF17
S1130A6A446174612073656E64696E672073746F80
S1130A7A707065642E0D0A0054454D503A20256461
S1130A8AC2B0432048554D3A2025642525204645C1
S1130A9A4348413A20253032642F253032642F25C9
S1130AAA30326420484F52413A20253032643A2584
S10F0ABA3032643A253032640D0A00002A
S9030000FC
