S01700004763634170706C69636174696F6E332E7372656359
S11300000C9434000C9451000C9451000C94510045
S11300100C9451000C9451000C9451000C94510018
S11300200C9451000C9451000C9451000C94230333
S11300300C9451000C9451000C9451000C945100F8
S11300400C9451000C9451000C9484020C94CA0238
S11300500C9451000C9451000C9451000C945100D8
S11300600C9451000C94510011241FBECFEFD8E022
S1130070DEBFCDBF11E0A0E0B1E0EEECFCE002C0D9
S113008005900D92AA37B107D9F721E0AAE7B1E0AC
S113009001C01D92A33EB207E1F70E943A030C94FB
S11300A065060C94000087B1816087B988B18160CE
S11300B088B90895EF92FF920F931F93CF93DF9324
S11300C000D000D01F92CDB7DEB78C017901FE01BC
S11300D0319685E0DF011D928A95E9F787B1816049
S11300E087B988B18E7F88B9EFE9FCE83197F1F7D9
S11300F000C0000088B1816088B987B18E7F87B95C
S11301003099FECF309BFECF96B1892F817090FD40
S1130110FBCF20E024C0309BFECFFDE4FA95F1F73D
S11301200000309B0EC0A7E0B0E0A91BB109E1E0DC
S1130130F0E002C0EE0FFF1FAA95E2F73E2B3099C4
S1130140FECF9F5F02C030E090E0983020F3E1E002
S1130150F0E0EC0FFD1FE20FF11D30832F5F25301F
S113016090F3309BFECFF981EA813B812C819F2F54
S11301709E0F930F920FAD819A1309C0DA01FC937D
S1130180D701EC93F8013083DB012C9301C081E0AB
S11301900F900F900F900F900F90DF91CF911F91C0
S11301A00F91FF90EF9008951092B90087E4809327
S11301B0B80084E08093BC00089584EA8093BC0076
S11301C08091BC008823E4F7089584E98093BC00FF
S11301D008958093BB0084E88093BC008091BC00A8
S11301E08823E4F7089584EC8093BC008091BC00DC
S11301F08823E4F78091BB00089584E88093BC00D1
S11302008091BC008823E4F78091BB0008959DECA5
S1130210899F912D1124969596959695392F330F94
S1130220232F220F220F230F821B20E1929F800D88
S1130230112408951F93CF93DF93C82FD62F142F23
S11302400E94DD0080ED0E94E90080E00E94E90048
S1130250812F0E9407010E94E9008D2F0E9407014F
S11302600E94E9008C2F0E9407010E94E9000E946D
S1130270E500DF91CF911F9108951F93CF93DF93F2
S1130280182FD62FC42F0E94DD0080ED0E94E900B4
S113029084E00E94E900812F0E9407010E94E90086
S11302A08D2F0E9407010E94E9008C2F0E940701F4
S11302B00E94E9000E94E500DF91CF911F9108950B
S11302C0982F92959F70990F292F220F220F920F2A
S11302D08F70890F0895EF92FF920F931F93CF931E
S11302E0DF93EC018B017A010E94DD0080ED0E9416
S11302F0E90080E00E94E9000E94DD0081ED0E9497
S1130300E9000E94F3000E946001F70180830E94CB
S1130310F3000E946001F80180830E94FD000E94A6
S1130320600188830E94E500DF91CF911F910F91B6
S1130330FF90EF900895EF92FF920F931F93CF9346
S1130340DF937C018B01EA010E94DD0080ED0E94B5
S1130350E90084E00E94E9000E94DD0081ED0E9432
S1130360E9000E94F3000E946001F70180830E946B
S1130370F3000E946001F80180830E94FD000E9446
S1130380600188830E94E500DF91CF911F910F9156
S1130390FF90EF9008951092C10096E09093C200F0
S11303A01092C5008093C4000895E1ECF0E08081D0
S11303B0886080830895E1ECF0E08081806280832E
S11303C00895E1ECF0E080818F7D80830895E1EC75
S11303D0F0E08081806180830895E1ECF0E0808129
S11303E08068808308958091C00085FFFCCF0895C4
S11303F08093C6000895EF92FF920F931F93CF93BB
S11304007C01C0E007C00E94F301F80180810E94D2
S1130410F801CF5F87010C0F111DF8018081811154
S1130420F2CFCF911F910F91FF90EF900895CF934A
S1130430DF93CDB7DEB72A970FB6F894DEBF0FBEB1
S1130440CDBF19821A821B821C829E012C5F3F4FF2
S1130450AE014D5F5F4FBE016E5F7F4FCE010196CF
S11304600E945A00811147C0AE01485F5F4FBE0130
S1130470675F7F4FCE010A960E946B01AE014B5F0E
S11304805F4FBE016A5F7F4FCE0107960E949B01BA
S113049088851F928F9389851F928F938A851F92D7
S11304A08F938D811F928F938E811F928F938F8153
S11304B01F928F938C811F928F938B811F928F93A6
S11304C08A811F928F9389811F928F9388E191E093
S11304D09F938F931F9284E68F938FE791E09F936E
S11304E08F930E946D0381E080937E010FB6F89490
S11304F0DEBF0FBECDBF2A960FB6F894DEBF0FBE87
S1130500CDBFDF91CF9108951F920F920FB60F9236
S113051011242F933F934F935F936F937F938F9304
S11305209F93AF93BF93EF93FF938091C600809303
S11305307A0180917A01833721F080917A018335A1
S1130540C1F49091170181E0911180E0809317012B
S113055080911701811107C00E94F3018CE091E0A2
S11305600E94FB0106C00E94F30180E091E00E941A
S1130570FB01FF91EF91BF91AF919F918F917F917B
S11305806F915F914F913F912F910F900FBE0F90FC
S11305901F9018951F920F920FB60F9211242F934C
S11305A03F934F935F936F937F938F939F93AF93F7
S11305B0BF93EF93FF93E0917B01F0E0E158FE4F8E
S11305C08081882371F0E0917B01F0E0E158FE4FD7
S11305D080810E94F80180917B018F5F80937B0171
S11305E00DC010927E0110927B0184E6EFE7F1E0EA
S11305F0DF011D928A95E9F70E94E101FF91EF91D5
S1130600BF91AF919F918F917F916F915F914F9126
S11306103F912F910F900FBE0F901F901895E1E816
S1130620F0E080818860808383E294EF9093890076
S113063080938800AFE6B0E08C9182608C938081D7
S11306408460808308951F920F920FB60F92112435
S11306508F9380917C018F5F80937C01813021F4A2
S113066080937D0110927C018F910F900FBE0F90AB
S11306701F90189583E30E94CB010E94D5010E942C
S1130680E7010E94ED010E940F030E9453000E94A3
S1130690D400789440E067E282E10E941A0148E1C4
S11306A066E08EE00E943D010E94F30182E691E043
S11306B00E94FB0180917D01882321F00E94170292
S11306C010927D01809117018823A1F380917E010E
S11306D0882381F30E94DB01EDCFAEE0B0E0E3E7D5
S11306E0F3E00C943C060D891E898F89988D26E0D1
S11306F02C831A83098397FF02C080E090E8019756
S11307009E838D83AE01455E5F4F698D7A8DCE01E8
S113071001960E949D034D815E8157FD0AC02F8181
S11307203885421753070CF49A01F801E20FF31FBE
S113073010822E96E4E00C945806ABE0B0E0E3EAB5
S1130740F3E00C942E066C017B018A01FC011782F4
S11307501682838181FFCCC1CE0101963C01F60152
S11307609381F70193FD859193FF81917F01882304
S113077009F4BAC1853239F493FD859193FF8191CF
S11307807F01853229F4B60190E00E949405E7CFF9
S1130790912C212C312CFFE1F315D8F08B3279F018
S11307A038F4803279F08332A1F4232D20611DC006
S11307B08D3261F0803369F4232D216016C0832DBE
S11307C08260382EE32DE4603E2E2AC0F32DF860BB
S11307D01DC037FC2DC020ED280F2A3040F08E328A
S11307E0B9F436FC81C1232D2064322E19C036FEA3
S11307F006C08AE0989E200D1124922E11C0EAE0D2
S11308002E9E200D1124222EF32DF0623F2E08C0BF
S11308108C3621F4832D8068382E02C0883641F44A
S1130820F70193FD859193FF81917F018111B3CFEE
S1130830982F9F7D9554933028F40C5F1F4F9FE3AE
S113084099830DC0833631F0833771F0833509F015
S113085059C021C0F801808189830E5F1F4F88240D
S11308608394912C530113C02801F2E04F0E511CC4
S1130870F801A080B18036FE03C0692D70E002C08B
S11308806FEF7FEFC5010E9489054C018201F32DB2
S1130890FF773F2E16C0280122E0420E511CF801BA
S11308A0A080B18036FE03C0692D70E002C06FEFF6
S11308B07FEFC5010E947E054C01F32DF0683F2EA9
S11308C0820133FC1BC0822D90E088169906B0F497
S11308D0B60180E290E00E9494052A94F4CFF501D9
S11308E037FC859137FE81915F01B60190E00E944B
S11308F0940521102A9421E0821A9108811491040C
S113090071F7E8C0843611F0893641F5F80137FEF5
S113091007C060817181828193810C5F1F4F08C081
S113092060817181072E000C880B990B0E5F1F4F9D
S1130930F32DFF763F2E97FF09C090958095709513
S113094061957F4F8F4F9F4FF0683F2E2AE030E034
S1130950A3010E94D005882E861845C0853731F43E
S1130960232D2F7EB22E2AE030E025C0932D997FCF
S1130970B92E8F36C1F018F4883579F0B5C08037B8
S113098019F0883721F0B0C0E92FE061BE2EB4FE23
S11309900DC0FB2DF460BF2E09C034FE0AC0292F00
S11309A02660B22E06C028E030E005C020E130E029
S11309B002C020E132E0F801B7FE07C06081718116
S11309C0828193810C5F1F4F06C06081718180E03A
S11309D090E00E5F1F4FA3010E94D005882E861859
S11309E0FB2DFF773F2E36FE0DC0232D2E7FA22E2A
S11309F0891458F434FE0BC032FC09C0832D8E7E5A
S1130A00A82E05C0B82CA32C03C0B82C01C0B92C47
S1130A10A4FE0FC0FE01E80DF11D8081803321F496
S1130A209A2D997EA92E09C0A2FE06C0B394B39450
S1130A3004C08A2D867809F0B394A3FC11C0A0FEEB
S1130A4006C0B21488F4280C922C9B180EC0B21461
S1130A5060F4B60180E290E00E949405B394F7CF6D
S1130A60B21418F42B1802C0982C212CA4FE10C028
S1130A70B60180E390E00E949405A2FE17C0A1FC99
S1130A8003C088E790E002C088E590E0B6010CC09E
S1130A908A2D867859F0A1FE02C08BE201C080E263
S1130AA0A7FC8DE2B60190E00E949405891438F405
S1130AB0B60180E390E00E9494059A94F7CF8A945B
S1130AC0F301E80DF11D8081B60190E00E949405C8
S1130AD08110F5CF222009F442CEB60180E290E0E5
S1130AE00E9494052A94F6CFF6018681978102C06C
S1130AF08FEF9FEF2B96E2E10C944A06FC010590E0
S1130B00615070400110D8F7809590958E0F9F1F0B
S1130B100895FC016150704001900110D8F7809550
S1130B2090958E0F9F1F08950F931F93CF93DF937C
S1130B30FB01238121FD03C08FEF9FEF2CC022FF17
S1130B4016C046815781248135814217530744F4E6
S1130B50A081B1819D012F5F3F4F318320838C930E
S1130B60268137812F5F3F4F3783268314C08B0143
S1130B70EC01FB010084F185E02D0995892BE1F658
S1130B80D80116968D919C911797019617969C9370
S1130B908E931697CE01DF91CF911F910F910895F7
S1130BA0FA01AA27283051F1203181F1E8946F939A
S1130BB06E7F6E5F7F4F8F4F9F4FAF4FB1E03ED040
S1130BC0B4E03CD0670F781F891F9A1FA11D680FDE
S1130BD0791F8A1F911DA11D6A0F711D811D911D11
S1130BE0A11D20D009F468943F912AE0269F112486
S1130BF03019305D3193DEF6CF010895462F4770EA
S1130C00405D4193B3E00FD0C9F7F6CF462F4F7044
S1130C10405D4A3318F0495D31FD4052419302D0A2
S1130C20A9F7EACFB4E0A695979587957795679548
S1130C30BA95C9F700976105710508959B01AC0148
S1130C400A2E06945795479537952795BA95C9F76F
S1130C50620F731F841F951FA01D08952F923F924A
S1130C604F925F926F927F928F929F92AF92BF92B8
S1130C70CF92DF92EF92FF920F931F93CF93DF9364
S1130C80CDB7DEB7CA1BDB0B0FB6F894DEBF0FBEC1
S1130C90CDBF09942A88398848885F846E847D840E
S1130CA08C849B84AA84B984C884DF80EE80FD8010
S1130CB00C811B81AA81B981CE0FD11D0FB6F89486
S1110CC0DEBF0FBECDBFED010895F894FFCF47
S1130CCE0D0A526573756D65640D0A000D0A506147
S1130CDE757365640D0A00010D0A54454D503A2092
S1130CEE25642E256420432048554D3A2025642E34
S1130CFE256425252046454348413A202530326453
S1130D0E2F253032642F2530326420484F52413A19
S1130D1E20253032643A253032643A253032640D5F
S1130D2E0A00496E696369616C697A6163696F6E01
S10D0D3E206C697374612E0D0A0025
S9030000FC
