S01700004763634170706C69636174696F6E332E7372656359
S11300000C9434000C9446000C9446000C94460066
S11300100C9446000C9446000C9446000C94460044
S11300200C9446000C9446000C9446000C94780002
S11300300C9446000C9446000C9446000C94460024
S11300400C9446000C9446000C9446000C94460014
S11300500C9446000C9446000C9446000C94460004
S11300600C9446000C94460011241FBECFEFD8E038
S1130070DEBFCDBF21E0A0E0B1E001C01D92A13000
S1130080B207E1F70E9487000C9499000C940000D9
S11300901092C10096E09093C2001092C500809324
S11300A0C4000895E1ECF0E08081886080830895C5
S11300B0E1ECF0E08081806180830895E1ECF0E080
S11300C08081806880830895E1E8F0E08081886021
S11300D0808381E19AE79093890080938800AFE65A
S11300E0B0E08C9182608C938081856080830895D8
S11300F01F920F920FB60F9211248F9381E0809379
S113010000018F910F900FBE0F901F90189587E6F6
S11301100E9448000E9452000E9458000E945E0003
S11301200E946400809100018823E1F31092000191
S1090130F9CFF894FFCFA3
S9030000FC
