:100000000C9434000C9451000C9451000C94510049
:100010000C9451000C9451000C9451000C9451001C
:100020000C9451000C9451000C9451000C949102CA
:100030000C9451000C9451000C9451000C945100FC
:100040000C9451000C9451000C9440020C945100FB
:100050000C9451000C9451000C9451000C945100DC
:100060000C9451000C94510011241FBECFEFD8E026
:10007000DEBFCDBF11E0A0E0B1E0E0EEFBE002C0EA
:1000800005900D92AC35B107D9F721E0ACE5B1E0B0
:1000900001C01D92AF35B207E1F70E94A0020C9497
:1000A000EE050C94000087B1816087B988B181604A
:1000B00088B90895CF92DF92EF92FF920F931F932A
:1000C000CF93DF93CDB7DEB727970FB6F894DEBF97
:1000D0000FBECDBF9F838E837B01FE01319685E0ED
:1000E000DF011D928A95E9F788B18E7F88B9EFE923
:1000F000FCE83197F1F700C0000088B1816088B951
:10010000F5E3FA95F1F7000087B18E7F87B9309952
:10011000FECF309BFECF96B1192F117090FDFBCF13
:10012000E0E024C0309BFECF8AE68A95F1F700C05C
:10013000309B0CC047E050E0491B510921E030E002
:1001400002C0220F331F4A95E2F7722B3099FECF7F
:100150009F5F02C070E090E0983020F3A1E0B0E033
:10016000AC0FBD1FAE0FB11D7C93EF5FE53090F378
:10017000309BFECF87B1816087B988B1816088B933
:1001800069818A810B819C81860F800F890F9D81F7
:1001900089131AC06701EE80FF8070E080E090E074
:1001A0000E94B902D6016D937D938D939C93139712
:1001B000602F70E080E090E00E94B902F701608358
:1001C00071838283938301C011E0812F27960FB63C
:1001D000F894DEBF0FBECDBFDF91CF911F910F917D
:1001E000FF90EF90DF90CF9008951092B90087E4D0
:1001F0008093B80084E08093BC00089584EA8093E3
:10020000BC008091BC008823E4F7089584E98093C2
:10021000BC0008958093BB0084E88093BC0080916B
:10022000BC008823E4F7089584EC8093BC0080919F
:10023000BC008823E4F78091BB00089584E8809394
:10024000BC008091BC008823E4F78091BB00089536
:10025000EF92FF920F931F93CF93DF93EC018B01EB
:100260007A010E94FE0080ED0E940A0180E00E9457
:100270000A010E94FE0081ED0E940A010E94140101
:10028000F70180830E941401F80180830E941E01FF
:1002900088830E940601DF91CF911F910F91FF90FB
:1002A000EF900895EF92FF920F931F93CF93DF93F8
:1002B0007C018B01EA010E94FE0080ED0E940A0190
:1002C00084E00E940A010E94FE0081ED0E940A0162
:1002D0000E941401F70180830E941401F8018083B9
:1002E0000E941E0188830E940601DF91CF911F9119
:1002F0000F91FF90EF9008951092C10096E09093B7
:10030000C2001092C5008093C4000895E1ECF0E0B3
:100310008081886080830895E1ECF0E080818061D5
:1003200080830895E1ECF0E0808180688083089507
:100330008091C00085FFFCCF08958093C60008958A
:10034000EF92FF920F931F93CF937C01C0E007C001
:100350000E949801F80180810E949D01CF5F870172
:100360000C0F111DF80180818111F2CFCF911F91E7
:100370000F91FF90EF900895CF93DF93CDB7DEB745
:10038000C257D1090FB6F894DEBF0FBECDBF198298
:100390001A821B821C821D821E821F821886BE0149
:1003A0006B5F7F4FCE0101960E945A0081115EC0A3
:1003B000AE0140595F4FBE016F587F4FCE018E583E
:1003C0009F4F0E942801AE0143595F4FBE01625901
:1003D0007F4FCE0181599F4F0E945201E1968FAD10
:1003E000E1971F928F93E2968FADE2971F928F93C2
:1003F000E3968FADE3971F928F93AE968FADAE9736
:100400001F928F93AF968FADAF971F928F93E09609
:100410008FADE0971F928F9388858F938F818F93F5
:100420008E818F938D818F938C818F938B818F930E
:100430008A818F9389818F9388E191E09F938F9335
:100440001F9284E68F93CE0109969F938F930E940B
:10045000F60280915E010FB6F894DEBF0FBECDBFED
:10046000882321F0CE0109960E94A001CE58DF4FCB
:100470000FB6F894DEBF0FBECDBFDF91CF910895C8
:100480001F920F920FB60F9211242F933F934F9309
:100490005F936F937F938F939F93AF93BF93EF93EC
:1004A000FF938091C60080935C0180915C0183374B
:1004B00021F080915C01833579F490915E0181E0B7
:1004C000911180E080935E0180915E01811104C0F2
:1004D00080E091E00E94A001FF91EF91BF91AF9168
:1004E0009F918F917F916F915F914F913F912F914C
:1004F0000F900FBE0F901F901895E1E8F0E08081FB
:100500008860808388E09DE39093890080938800D1
:10051000AFE6B0E08C9182608C93808185608083AF
:1005200008951F920F920FB60F9211248F9381E0BE
:1005300080935D018F910F900FBE0F901F901895C3
:1005400087E60E947C010E9486010E948C010E9425
:1005500092010E947D020E9453000E94F50078944F
:1005600080915D018823E1F30E94BC0110925D013E
:10057000F7CFE89409C097FB3EF49095809570956D
:1005800061957F4F8F4F9F4F9923A9F0F92F96E9DF
:10059000BB279395F695879577956795B795F11154
:1005A000F8CFFAF4BB0F11F460FF1BC06F5F7F4FF1
:1005B0008F4F9F4F16C0882311F096E911C0772303
:1005C00021F09EE8872F762F05C0662371F096E80C
:1005D000862F70E060E02AF09A95660F771F881FDB
:1005E000DAF7880F9695879597F90895AEE0B0E011
:1005F000ECEFF2E00C94C5050D891E898F89988D6A
:1006000026E02C831A83098397FF02C080E090E8DC
:1006100001979E838D83AE01455E5F4F698D7A8D14
:10062000CE0101960E9426034D815E8157FD0AC0CE
:100630002F813885421753070CF49A01F801E20F15
:10064000F31F10822E96E4E00C94E105ABE0B0E0DD
:10065000ECE2F3E00C94B7056C017B018A01FC012C
:1006600017821682838181FFCCC1CE0101963C01A5
:10067000F6019381F70193FD859193FF81917F01AD
:10068000882309F4BAC1853239F493FD859193FF2B
:1006900081917F01853229F4B60190E00E941D0509
:1006A000E7CF912C212C312CFFE1F315D8F08B32C0
:1006B00079F038F4803279F08332A1F4232D20616F
:1006C0001DC08D3261F0803369F4232D216016C086
:1006D000832D8260382EE32DE4603E2E2AC0F32D58
:1006E000F8601DC037FC2DC020ED280F2A3040F0E7
:1006F0008E32B9F436FC81C1232D2064322E19C00C
:1007000036FE06C08AE0989E200D1124922E11C05C
:10071000EAE02E9E200D1124222EF32DF0623F2EB2
:1007200008C08C3621F4832D8068382E02C08836AC
:1007300041F4F70193FD859193FF81917F01811130
:10074000B3CF982F9F7D9554933028F40C5F1F4FA3
:100750009FE399830DC0833631F0833771F0833581
:1007600009F059C021C0F801808189830E5F1F4FB5
:1007700088248394912C530113C02801F2E04F0E7A
:10078000511CF801A080B18036FE03C0692D70E0D5
:1007900002C06FEF7FEFC5010E9412054C0182017C
:1007A000F32DFF773F2E16C0280122E0420E511C88
:1007B000F801A080B18036FE03C0692D70E002C050
:1007C0006FEF7FEFC5010E9407054C01F32DF06824
:1007D0003F2E820133FC1BC0822D90E088169906C3
:1007E000B0F4B60180E290E00E941D052A94F4CF97
:1007F000F50137FC859137FE81915F01B60190E0EC
:100800000E941D0521102A9421E0821A910881146A
:10081000910471F7E8C0843611F0893641F5F8018A
:1008200037FE07C060817181828193810C5F1F4F09
:1008300008C060817181072E000C880B990B0E5F38
:100840001F4FF32DFF763F2E97FF09C0909580959F
:10085000709561957F4F8F4F9F4FF0683F2E2AE034
:1008600030E0A3010E945905882E861845C08537BF
:1008700031F4232D2F7EB22E2AE030E025C0932DB7
:10088000997FB92E8F36C1F018F4883579F0B5C04C
:10089000803719F0883721F0B0C0E92FE061BE2E13
:1008A000B4FE0DC0FB2DF460BF2E09C034FE0AC09B
:1008B000292F2660B22E06C028E030E005C020E1D6
:1008C00030E002C020E132E0F801B7FE07C06081ED
:1008D0007181828193810C5F1F4F06C0608171819D
:1008E00080E090E00E5F1F4FA3010E945905882E03
:1008F0008618FB2DFF773F2E36FE0DC0232D2E7F51
:10090000A22E891458F434FE0BC032FC09C0832D8A
:100910008E7EA82E05C0B82CA32C03C0B82C01C015
:10092000B92CA4FE0FC0FE01E80DF11D80818033BB
:1009300021F49A2D997EA92E09C0A2FE06C0B39477
:10094000B39404C08A2D867809F0B394A3FC11C037
:10095000A0FE06C0B21488F4280C922C9B180EC07E
:10096000B21460F4B60180E290E00E941D05B394D9
:10097000F7CFB21418F42B1802C0982C212CA4FE27
:1009800010C0B60180E390E00E941D05A2FE17C0D2
:10099000A1FC03C088E790E002C088E590E0B601C2
:1009A0000CC08A2D867859F0A1FE02C08BE201C0EE
:1009B00080E2A7FC8DE2B60190E00E941D0589143B
:1009C00038F4B60180E390E00E941D059A94F7CFB9
:1009D0008A94F301E80DF11D8081B60190E00E9438
:1009E0001D058110F5CF222009F442CEB60180E228
:1009F00090E00E941D052A94F6CFF601868197812A
:100A000002C08FEF9FEF2B96E2E10C94D305FC011F
:100A10000590615070400110D8F7809590958E0F29
:100A20009F1F0895FC016150704001900110D8F79C
:100A3000809590958E0F9F1F08950F931F93CF93CE
:100A4000DF93FB01238121FD03C08FEF9FEF2CC0BB
:100A500022FF16C0468157812481358142175307F2
:100A600044F4A081B1819D012F5F3F4F31832083EA
:100A70008C93268137812F5F3F4F3783268314C0A5
:100A80008B01EC01FB010084F185E02D0995892B98
:100A9000E1F6D80116968D919C91179701961796BD
:100AA0009C938E931697CE01DF91CF911F910F915A
:100AB0000895FA01AA27283051F1203181F1E894F4
:100AC0006F936E7F6E5F7F4F8F4F9F4FAF4FB1E041
:100AD0003ED0B4E03CD0670F781F891F9A1FA11D3C
:100AE000680F791F8A1F911DA11D6A0F711D811D3D
:100AF000911DA11D20D009F468943F912AE0269F02
:100B000011243019305D3193DEF6CF010895462F60
:100B10004770405D4193B3E00FD0C9F7F6CF462F41
:100B20004F70405D4A3318F0495D31FD40524193AA
:100B300002D0A9F7EACFB4E0A69597958795779567
:100B40006795BA95C9F700976105710508959B01EE
:100B5000AC010A2E06945795479537952795BA9577
:100B6000C9F7620F731F841F951FA01D08952F9250
:100B70003F924F925F926F927F928F929F92AF922D
:100B8000BF92CF92DF92EF92FF920F931F93CF937A
:100B9000DF93CDB7DEB7CA1BDB0B0FB6F894DEBF11
:100BA0000FBECDBF09942A88398848885F846E8437
:100BB0007D848C849B84AA84B984C884DF80EE8081
:100BC000FD800C811B81AA81B981CE0FD11D0FB68A
:100BD000F894DEBF0FBECDBFED010895F894FFCFAE
:100BE000446174612073656E64696E672073746F0D
:100BF000707065642E0D0A0054454D503A202566EC
:100C0000C2B0432048554D3A20256625252046454B
:100C10004348413A20253032642F253032642F2555
:100C200030326420484F52413A20253032643A2510
:0C0C30003032643A253032640D0A0000B6
:00000001FF
